{
  "_format": "hh-sol-artifact-1",
  "contractName": "BeraSwapRouter",
  "sourceName": "contracts/BeraSwapRouter.sol",
  "abi": [
    {
      "inputs": [
        {
          "internalType": "address",
          "name": "_factory",
          "type": "address"
        },
        {
          "internalType": "address",
          "name": "_WBNB",
          "type": "address"
        }
      ],
      "stateMutability": "nonpayable",
      "type": "constructor"
    },
    {
      "inputs": [],
      "name": "WBNB",
      "outputs": [
        {
          "internalType": "address",
          "name": "",
          "type": "address"
        }
      ],
      "stateMutability": "view",
      "type": "function"
    },
    {
      "inputs": [
        {
          "internalType": "address",
          "name": "tokenA",
          "type": "address"
        },
        {
          "internalType": "address",
          "name": "tokenB",
          "type": "address"
        },
        {
          "internalType": "uint256",
          "name": "amountADesired",
          "type": "uint256"
        },
        {
          "internalType": "uint256",
          "name": "amountBDesired",
          "type": "uint256"
        },
        {
          "internalType": "uint256",
          "name": "amountAMin",
          "type": "uint256"
        },
        {
          "internalType": "uint256",
          "name": "amountBMin",
          "type": "uint256"
        },
        {
          "internalType": "address",
          "name": "to",
          "type": "address"
        },
        {
          "internalType": "uint256",
          "name": "deadline",
          "type": "uint256"
        }
      ],
      "name": "addLiquidity",
      "outputs": [
        {
          "internalType": "uint256",
          "name": "amountA",
          "type": "uint256"
        },
        {
          "internalType": "uint256",
          "name": "amountB",
          "type": "uint256"
        },
        {
          "internalType": "uint256",
          "name": "liquidity",
          "type": "uint256"
        }
      ],
      "stateMutability": "nonpayable",
      "type": "function"
    },
    {
      "inputs": [
        {
          "internalType": "address",
          "name": "token",
          "type": "address"
        },
        {
          "internalType": "uint256",
          "name": "amountTokenDesired",
          "type": "uint256"
        },
        {
          "internalType": "uint256",
          "name": "amountTokenMin",
          "type": "uint256"
        },
        {
          "internalType": "uint256",
          "name": "amountBNBMin",
          "type": "uint256"
        },
        {
          "internalType": "address",
          "name": "to",
          "type": "address"
        },
        {
          "internalType": "uint256",
          "name": "deadline",
          "type": "uint256"
        }
      ],
      "name": "addLiquidityBNB",
      "outputs": [
        {
          "internalType": "uint256",
          "name": "amountToken",
          "type": "uint256"
        },
        {
          "internalType": "uint256",
          "name": "amountBNB",
          "type": "uint256"
        },
        {
          "internalType": "uint256",
          "name": "liquidity",
          "type": "uint256"
        }
      ],
      "stateMutability": "payable",
      "type": "function"
    },
    {
      "inputs": [],
      "name": "factory",
      "outputs": [
        {
          "internalType": "address",
          "name": "",
          "type": "address"
        }
      ],
      "stateMutability": "view",
      "type": "function"
    },
    {
      "inputs": [
        {
          "internalType": "uint256",
          "name": "amountOut",
          "type": "uint256"
        },
        {
          "internalType": "uint256",
          "name": "reserveIn",
          "type": "uint256"
        },
        {
          "internalType": "uint256",
          "name": "reserveOut",
          "type": "uint256"
        }
      ],
      "name": "getAmountIn",
      "outputs": [
        {
          "internalType": "uint256",
          "name": "amountIn",
          "type": "uint256"
        }
      ],
      "stateMutability": "pure",
      "type": "function"
    },
    {
      "inputs": [
        {
          "internalType": "uint256",
          "name": "amountIn",
          "type": "uint256"
        },
        {
          "internalType": "uint256",
          "name": "reserveIn",
          "type": "uint256"
        },
        {
          "internalType": "uint256",
          "name": "reserveOut",
          "type": "uint256"
        }
      ],
      "name": "getAmountOut",
      "outputs": [
        {
          "internalType": "uint256",
          "name": "amountOut",
          "type": "uint256"
        }
      ],
      "stateMutability": "pure",
      "type": "function"
    },
    {
      "inputs": [
        {
          "internalType": "uint256",
          "name": "amountOut",
          "type": "uint256"
        },
        {
          "internalType": "address[]",
          "name": "path",
          "type": "address[]"
        }
      ],
      "name": "getAmountsIn",
      "outputs": [
        {
          "internalType": "uint256[]",
          "name": "amounts",
          "type": "uint256[]"
        }
      ],
      "stateMutability": "view",
      "type": "function"
    },
    {
      "inputs": [
        {
          "internalType": "uint256",
          "name": "amountIn",
          "type": "uint256"
        },
        {
          "internalType": "address[]",
          "name": "path",
          "type": "address[]"
        }
      ],
      "name": "getAmountsOut",
      "outputs": [
        {
          "internalType": "uint256[]",
          "name": "amounts",
          "type": "uint256[]"
        }
      ],
      "stateMutability": "view",
      "type": "function"
    },
    {
      "inputs": [
        {
          "internalType": "uint256",
          "name": "amountA",
          "type": "uint256"
        },
        {
          "internalType": "uint256",
          "name": "reserveA",
          "type": "uint256"
        },
        {
          "internalType": "uint256",
          "name": "reserveB",
          "type": "uint256"
        }
      ],
      "name": "quote",
      "outputs": [
        {
          "internalType": "uint256",
          "name": "amountB",
          "type": "uint256"
        }
      ],
      "stateMutability": "pure",
      "type": "function"
    },
    {
      "inputs": [
        {
          "internalType": "address",
          "name": "tokenA",
          "type": "address"
        },
        {
          "internalType": "address",
          "name": "tokenB",
          "type": "address"
        },
        {
          "internalType": "uint256",
          "name": "liquidity",
          "type": "uint256"
        },
        {
          "internalType": "uint256",
          "name": "amountAMin",
          "type": "uint256"
        },
        {
          "internalType": "uint256",
          "name": "amountBMin",
          "type": "uint256"
        },
        {
          "internalType": "address",
          "name": "to",
          "type": "address"
        },
        {
          "internalType": "uint256",
          "name": "deadline",
          "type": "uint256"
        }
      ],
      "name": "removeLiquidity",
      "outputs": [
        {
          "internalType": "uint256",
          "name": "amountA",
          "type": "uint256"
        },
        {
          "internalType": "uint256",
          "name": "amountB",
          "type": "uint256"
        }
      ],
      "stateMutability": "nonpayable",
      "type": "function"
    },
    {
      "inputs": [
        {
          "internalType": "address",
          "name": "token",
          "type": "address"
        },
        {
          "internalType": "uint256",
          "name": "liquidity",
          "type": "uint256"
        },
        {
          "internalType": "uint256",
          "name": "amountTokenMin",
          "type": "uint256"
        },
        {
          "internalType": "uint256",
          "name": "amountBNBMin",
          "type": "uint256"
        },
        {
          "internalType": "address",
          "name": "to",
          "type": "address"
        },
        {
          "internalType": "uint256",
          "name": "deadline",
          "type": "uint256"
        }
      ],
      "name": "removeLiquidityBNB",
      "outputs": [
        {
          "internalType": "uint256",
          "name": "amountToken",
          "type": "uint256"
        },
        {
          "internalType": "uint256",
          "name": "amountBNB",
          "type": "uint256"
        }
      ],
      "stateMutability": "nonpayable",
      "type": "function"
    },
    {
      "inputs": [
        {
          "internalType": "address",
          "name": "token",
          "type": "address"
        },
        {
          "internalType": "uint256",
          "name": "liquidity",
          "type": "uint256"
        },
        {
          "internalType": "uint256",
          "name": "amountTokenMin",
          "type": "uint256"
        },
        {
          "internalType": "uint256",
          "name": "amountBNBMin",
          "type": "uint256"
        },
        {
          "internalType": "address",
          "name": "to",
          "type": "address"
        },
        {
          "internalType": "uint256",
          "name": "deadline",
          "type": "uint256"
        }
      ],
      "name": "removeLiquidityBNBSupportingFeeOnTransferTokens",
      "outputs": [
        {
          "internalType": "uint256",
          "name": "amountBNB",
          "type": "uint256"
        }
      ],
      "stateMutability": "nonpayable",
      "type": "function"
    },
    {
      "inputs": [
        {
          "internalType": "address",
          "name": "token",
          "type": "address"
        },
        {
          "internalType": "uint256",
          "name": "liquidity",
          "type": "uint256"
        },
        {
          "internalType": "uint256",
          "name": "amountTokenMin",
          "type": "uint256"
        },
        {
          "internalType": "uint256",
          "name": "amountBNBMin",
          "type": "uint256"
        },
        {
          "internalType": "address",
          "name": "to",
          "type": "address"
        },
        {
          "internalType": "uint256",
          "name": "deadline",
          "type": "uint256"
        },
        {
          "internalType": "bool",
          "name": "approveMax",
          "type": "bool"
        },
        {
          "internalType": "uint8",
          "name": "v",
          "type": "uint8"
        },
        {
          "internalType": "bytes32",
          "name": "r",
          "type": "bytes32"
        },
        {
          "internalType": "bytes32",
          "name": "s",
          "type": "bytes32"
        }
      ],
      "name": "removeLiquidityBNBWithPermit",
      "outputs": [
        {
          "internalType": "uint256",
          "name": "amountToken",
          "type": "uint256"
        },
        {
          "internalType": "uint256",
          "name": "amountBNB",
          "type": "uint256"
        }
      ],
      "stateMutability": "nonpayable",
      "type": "function"
    },
    {
      "inputs": [
        {
          "internalType": "address",
          "name": "token",
          "type": "address"
        },
        {
          "internalType": "uint256",
          "name": "liquidity",
          "type": "uint256"
        },
        {
          "internalType": "uint256",
          "name": "amountTokenMin",
          "type": "uint256"
        },
        {
          "internalType": "uint256",
          "name": "amountBNBMin",
          "type": "uint256"
        },
        {
          "internalType": "address",
          "name": "to",
          "type": "address"
        },
        {
          "internalType": "uint256",
          "name": "deadline",
          "type": "uint256"
        },
        {
          "internalType": "bool",
          "name": "approveMax",
          "type": "bool"
        },
        {
          "internalType": "uint8",
          "name": "v",
          "type": "uint8"
        },
        {
          "internalType": "bytes32",
          "name": "r",
          "type": "bytes32"
        },
        {
          "internalType": "bytes32",
          "name": "s",
          "type": "bytes32"
        }
      ],
      "name": "removeLiquidityBNBWithPermitSupportingFeeOnTransferTokens",
      "outputs": [
        {
          "internalType": "uint256",
          "name": "amountBNB",
          "type": "uint256"
        }
      ],
      "stateMutability": "nonpayable",
      "type": "function"
    },
    {
      "inputs": [
        {
          "internalType": "address",
          "name": "tokenA",
          "type": "address"
        },
        {
          "internalType": "address",
          "name": "tokenB",
          "type": "address"
        },
        {
          "internalType": "uint256",
          "name": "liquidity",
          "type": "uint256"
        },
        {
          "internalType": "uint256",
          "name": "amountAMin",
          "type": "uint256"
        },
        {
          "internalType": "uint256",
          "name": "amountBMin",
          "type": "uint256"
        },
        {
          "internalType": "address",
          "name": "to",
          "type": "address"
        },
        {
          "internalType": "uint256",
          "name": "deadline",
          "type": "uint256"
        },
        {
          "internalType": "bool",
          "name": "approveMax",
          "type": "bool"
        },
        {
          "internalType": "uint8",
          "name": "v",
          "type": "uint8"
        },
        {
          "internalType": "bytes32",
          "name": "r",
          "type": "bytes32"
        },
        {
          "internalType": "bytes32",
          "name": "s",
          "type": "bytes32"
        }
      ],
      "name": "removeLiquidityWithPermit",
      "outputs": [
        {
          "internalType": "uint256",
          "name": "amountA",
          "type": "uint256"
        },
        {
          "internalType": "uint256",
          "name": "amountB",
          "type": "uint256"
        }
      ],
      "stateMutability": "nonpayable",
      "type": "function"
    },
    {
      "inputs": [
        {
          "internalType": "uint256",
          "name": "amountOut",
          "type": "uint256"
        },
        {
          "internalType": "address[]",
          "name": "path",
          "type": "address[]"
        },
        {
          "internalType": "address",
          "name": "to",
          "type": "address"
        },
        {
          "internalType": "uint256",
          "name": "deadline",
          "type": "uint256"
        }
      ],
      "name": "swapBNBForExactTokens",
      "outputs": [
        {
          "internalType": "uint256[]",
          "name": "amounts",
          "type": "uint256[]"
        }
      ],
      "stateMutability": "payable",
      "type": "function"
    },
    {
      "inputs": [
        {
          "internalType": "uint256",
          "name": "amountOutMin",
          "type": "uint256"
        },
        {
          "internalType": "address[]",
          "name": "path",
          "type": "address[]"
        },
        {
          "internalType": "address",
          "name": "to",
          "type": "address"
        },
        {
          "internalType": "uint256",
          "name": "deadline",
          "type": "uint256"
        }
      ],
      "name": "swapExactBNBForTokens",
      "outputs": [
        {
          "internalType": "uint256[]",
          "name": "amounts",
          "type": "uint256[]"
        }
      ],
      "stateMutability": "payable",
      "type": "function"
    },
    {
      "inputs": [
        {
          "internalType": "uint256",
          "name": "amountOutMin",
          "type": "uint256"
        },
        {
          "internalType": "address[]",
          "name": "path",
          "type": "address[]"
        },
        {
          "internalType": "address",
          "name": "to",
          "type": "address"
        },
        {
          "internalType": "uint256",
          "name": "deadline",
          "type": "uint256"
        }
      ],
      "name": "swapExactBNBForTokensSupportingFeeOnTransferTokens",
      "outputs": [],
      "stateMutability": "payable",
      "type": "function"
    },
    {
      "inputs": [
        {
          "internalType": "uint256",
          "name": "amountIn",
          "type": "uint256"
        },
        {
          "internalType": "uint256",
          "name": "amountOutMin",
          "type": "uint256"
        },
        {
          "internalType": "address[]",
          "name": "path",
          "type": "address[]"
        },
        {
          "internalType": "address",
          "name": "to",
          "type": "address"
        },
        {
          "internalType": "uint256",
          "name": "deadline",
          "type": "uint256"
        }
      ],
      "name": "swapExactTokensForBNB",
      "outputs": [
        {
          "internalType": "uint256[]",
          "name": "amounts",
          "type": "uint256[]"
        }
      ],
      "stateMutability": "nonpayable",
      "type": "function"
    },
    {
      "inputs": [
        {
          "internalType": "uint256",
          "name": "amountIn",
          "type": "uint256"
        },
        {
          "internalType": "uint256",
          "name": "amountOutMin",
          "type": "uint256"
        },
        {
          "internalType": "address[]",
          "name": "path",
          "type": "address[]"
        },
        {
          "internalType": "address",
          "name": "to",
          "type": "address"
        },
        {
          "internalType": "uint256",
          "name": "deadline",
          "type": "uint256"
        }
      ],
      "name": "swapExactTokensForBNBSupportingFeeOnTransferTokens",
      "outputs": [],
      "stateMutability": "nonpayable",
      "type": "function"
    },
    {
      "inputs": [
        {
          "internalType": "uint256",
          "name": "amountIn",
          "type": "uint256"
        },
        {
          "internalType": "uint256",
          "name": "amountOutMin",
          "type": "uint256"
        },
        {
          "internalType": "address[]",
          "name": "path",
          "type": "address[]"
        },
        {
          "internalType": "address",
          "name": "to",
          "type": "address"
        },
        {
          "internalType": "uint256",
          "name": "deadline",
          "type": "uint256"
        }
      ],
      "name": "swapExactTokensForTokens",
      "outputs": [
        {
          "internalType": "uint256[]",
          "name": "amounts",
          "type": "uint256[]"
        }
      ],
      "stateMutability": "nonpayable",
      "type": "function"
    },
    {
      "inputs": [
        {
          "internalType": "uint256",
          "name": "amountIn",
          "type": "uint256"
        },
        {
          "internalType": "uint256",
          "name": "amountOutMin",
          "type": "uint256"
        },
        {
          "internalType": "address[]",
          "name": "path",
          "type": "address[]"
        },
        {
          "internalType": "address",
          "name": "to",
          "type": "address"
        },
        {
          "internalType": "uint256",
          "name": "deadline",
          "type": "uint256"
        }
      ],
      "name": "swapExactTokensForTokensSupportingFeeOnTransferTokens",
      "outputs": [],
      "stateMutability": "nonpayable",
      "type": "function"
    },
    {
      "inputs": [
        {
          "internalType": "uint256",
          "name": "amountOut",
          "type": "uint256"
        },
        {
          "internalType": "uint256",
          "name": "amountInMax",
          "type": "uint256"
        },
        {
          "internalType": "address[]",
          "name": "path",
          "type": "address[]"
        },
        {
          "internalType": "address",
          "name": "to",
          "type": "address"
        },
        {
          "internalType": "uint256",
          "name": "deadline",
          "type": "uint256"
        }
      ],
      "name": "swapTokensForExactBNB",
      "outputs": [
        {
          "internalType": "uint256[]",
          "name": "amounts",
          "type": "uint256[]"
        }
      ],
      "stateMutability": "nonpayable",
      "type": "function"
    },
    {
      "inputs": [
        {
          "internalType": "uint256",
          "name": "amountOut",
          "type": "uint256"
        },
        {
          "internalType": "uint256",
          "name": "amountInMax",
          "type": "uint256"
        },
        {
          "internalType": "address[]",
          "name": "path",
          "type": "address[]"
        },
        {
          "internalType": "address",
          "name": "to",
          "type": "address"
        },
        {
          "internalType": "uint256",
          "name": "deadline",
          "type": "uint256"
        }
      ],
      "name": "swapTokensForExactTokens",
      "outputs": [
        {
          "internalType": "uint256[]",
          "name": "amounts",
          "type": "uint256[]"
        }
      ],
      "stateMutability": "nonpayable",
      "type": "function"
    },
    {
      "stateMutability": "payable",
      "type": "receive"
    }
  ],
  "bytecode": "0x60c060405234801561001057600080fd5b5060405162004705380380620047058339818101604052604081101561003557600080fd5b5080516020909101516001600160601b0319606092831b8116608052911b1660a05260805160601c60a05160601c614580620001856000398061015f5280610e08528061111a52806111af5280611223528061174552806118d552806119b35280611adf5280611c225280611caa5280611f2b5280611f9552806120db528061216352806122ef528061239e5280612707528061280152806128b7528061298d5280612b165280612b515280612d6e5280612dc45280612df85280612e6c525080610cb35280610cec5280610de65280610f3b52806110125280611255528061156652806117d352806119915280611b725280611cdc5280611e7b528061202852806121955280612472528061266a52806126935280612a1b5280612c465280612da252806136045280613647528061375c52806138db5280613ef05280613f9e528061401e52506145806000f3fe60806040526004361061014f5760003560e01c80638dd95002116100b6578063d06ca61f1161006f578063d06ca61f1461099d578063d46d2f8314610a52578063d67b571e14610ae8578063e058848814610b7e578063e8e3370014610bd1578063eaaed44214610c5157610188565b80638dd95002146107ed5780639cf689111461081e578063ad615dec146108a2578063b7e65949146108d8578063baa2abde1461092b578063c45a01551461098857610188565b80635c11d795116101085780635c11d795146104fe5780635d616c5b14610594578063685a0a341461062a5780638332a9631461069d57806385f8c259146107215780638803dbee1461075757610188565b8063054d50d41461018d5780631f00ca74146101d55780632195995c146102da57806334a0772d1461037157806338ed1739146103e457806350e27df31461047a57610188565b3661018857336001600160a01b037f0000000000000000000000000000000000000000000000000000000000000000161461018657fe5b005b600080fd5b34801561019957600080fd5b506101c3600480360360608110156101b057600080fd5b5080359060208101359060400135610c97565b60408051918252519081900360200190f35b3480156101e157600080fd5b5061028a600480360360408110156101f857600080fd5b81359190810190604081016020820135600160201b81111561021957600080fd5b82018360208201111561022b57600080fd5b803590602001918460208302840111600160201b8311171561024c57600080fd5b919080806020026020016040519081016040528093929190818152602001838360200280828437600092019190915250929550610cac945050505050565b60408051602080825283518183015283519192839290830191858101910280838360005b838110156102c65781810151838201526020016102ae565b505050509050019250505060405180910390f35b3480156102e657600080fd5b5061035860048036036101608110156102fe57600080fd5b506001600160a01b038135811691602081013582169160408201359160608101359160808201359160a08101359091169060c08101359060e081013515159060ff6101008201351690610120810135906101400135610ce2565b6040805192835260208301919091528051918290030190f35b34801561037d57600080fd5b50610358600480360361014081101561039557600080fd5b506001600160a01b0381358116916020810135916040820135916060810135916080820135169060a08101359060c081013515159060ff60e08201351690610100810135906101200135610ddc565b3480156103f057600080fd5b5061028a600480360360a081101561040757600080fd5b813591602081013591810190606081016040820135600160201b81111561042d57600080fd5b82018360208201111561043f57600080fd5b803590602001918460208302840111600160201b8311171561046057600080fd5b91935091506001600160a01b038135169060200135610ef0565b6101866004803603608081101561049057600080fd5b81359190810190604081016020820135600160201b8111156104b157600080fd5b8201836020820111156104c357600080fd5b803590602001918460208302840111600160201b831117156104e457600080fd5b91935091506001600160a01b0381351690602001356110d4565b34801561050a57600080fd5b50610186600480360360a081101561052157600080fd5b813591602081013591810190606081016040820135600160201b81111561054757600080fd5b82018360208201111561055957600080fd5b803590602001918460208302840111600160201b8311171561057a57600080fd5b91935091506001600160a01b0381351690602001356114fc565b3480156105a057600080fd5b5061028a600480360360a08110156105b757600080fd5b813591602081013591810190606081016040820135600160201b8111156105dd57600080fd5b8201836020820111156105ef57600080fd5b803590602001918460208302840111600160201b8311171561061057600080fd5b91935091506001600160a01b0381351690602001356116f5565b34801561063657600080fd5b506101c3600480360361014081101561064e57600080fd5b506001600160a01b0381358116916020810135916040820135916060810135916080820135169060a08101359060c081013515159060ff60e08201351690610100810135906101200135611989565b61028a600480360360808110156106b357600080fd5b81359190810190604081016020820135600160201b8111156106d457600080fd5b8201836020820111156106e657600080fd5b803590602001918460208302840111600160201b8311171561070757600080fd5b91935091506001600160a01b038135169060200135611a97565b34801561072d57600080fd5b506101c36004803603606081101561074457600080fd5b5080359060208101359060400135611e23565b34801561076357600080fd5b5061028a600480360360a081101561077a57600080fd5b813591602081013591810190606081016040820135600160201b8111156107a057600080fd5b8201836020820111156107b257600080fd5b803590602001918460208302840111600160201b831117156107d357600080fd5b91935091506001600160a01b038135169060200135611e30565b3480156107f957600080fd5b50610802611f29565b604080516001600160a01b039092168252519081900360200190f35b61028a6004803603608081101561083457600080fd5b81359190810190604081016020820135600160201b81111561085557600080fd5b82018360208201111561086757600080fd5b803590602001918460208302840111600160201b8311171561088857600080fd5b91935091506001600160a01b038135169060200135611f4d565b3480156108ae57600080fd5b506101c3600480360360608110156108c557600080fd5b5080359060208101359060400135612296565b3480156108e457600080fd5b506101c3600480360360c08110156108fb57600080fd5b506001600160a01b0381358116916020810135916040820135916060810135916080820135169060a001356122a3565b34801561093757600080fd5b50610358600480360360e081101561094e57600080fd5b506001600160a01b038135811691602081013582169160408201359160608101359160808201359160a08101359091169060c00135612424565b34801561099457600080fd5b50610802612668565b3480156109a957600080fd5b5061028a600480360360408110156109c057600080fd5b81359190810190604081016020820135600160201b8111156109e157600080fd5b8201836020820111156109f357600080fd5b803590602001918460208302840111600160201b83111715610a1457600080fd5b91908080602002602001604051908101604052809392919081815260200183836020028082843760009201919091525092955061268c945050505050565b348015610a5e57600080fd5b50610186600480360360a0811015610a7557600080fd5b813591602081013591810190606081016040820135600160201b811115610a9b57600080fd5b820183602082011115610aad57600080fd5b803590602001918460208302840111600160201b83111715610ace57600080fd5b91935091506001600160a01b0381351690602001356126b9565b348015610af457600080fd5b5061028a600480360360a0811015610b0b57600080fd5b813591602081013591810190606081016040820135600160201b811115610b3157600080fd5b820183602082011115610b4357600080fd5b803590602001918460208302840111600160201b83111715610b6457600080fd5b91935091506001600160a01b03813516906020013561293d565b348015610b8a57600080fd5b50610358600480360360c0811015610ba157600080fd5b506001600160a01b0381358116916020810135916040820135916060810135916080820135169060a00135612ac9565b348015610bdd57600080fd5b50610c336004803603610100811015610bf557600080fd5b506001600160a01b038135811691602081013582169160408201359160608101359160808201359160a08101359160c0820135169060e00135612be3565b60408051938452602084019290925282820152519081900360600190f35b610c33600480360360c0811015610c6757600080fd5b506001600160a01b0381358116916020810135916040820135916060810135916080820135169060a00135612d1f565b6000610ca4848484612fc4565b949350505050565b6060610cd97f000000000000000000000000000000000000000000000000000000000000000084846130b4565b90505b92915050565b6000806000610d127f00000000000000000000000000000000000000000000000000000000000000008f8f613201565b9050600087610d21578c610d25565b6000195b6040805163d505accf60e01b815233600482015230602482015260448101839052606481018c905260ff8a16608482015260a4810189905260c4810188905290519192506001600160a01b0384169163d505accf9160e48082019260009290919082900301818387803b158015610d9b57600080fd5b505af1158015610daf573d6000803e3d6000fd5b50505050610dc28f8f8f8f8f8f8f612424565b809450819550505050509b509b9950505050505050505050565b6000806000610e2c7f00000000000000000000000000000000000000000000000000000000000000008e7f0000000000000000000000000000000000000000000000000000000000000000613201565b9050600087610e3b578c610e3f565b6000195b6040805163d505accf60e01b815233600482015230602482015260448101839052606481018c905260ff8a16608482015260a4810189905260c4810188905290519192506001600160a01b0384169163d505accf9160e48082019260009290919082900301818387803b158015610eb557600080fd5b505af1158015610ec9573d6000803e3d6000fd5b50505050610edb8e8e8e8e8e8e612ac9565b909f909e509c50505050505050505050505050565b60608142811015610f36576040805162461bcd60e51b815260206004820152601760248201526000805160206143fd833981519152604482015290519081900360640190fd5b610f947f0000000000000000000000000000000000000000000000000000000000000000898888808060200260200160405190810160405280939291908181526020018383602002808284376000920191909152506132c192505050565b91508682600184510381518110610fa757fe5b60200260200101511015610fec5760405162461bcd60e51b815260040180806020018281038252602a815260200180614369602a913960400191505060405180910390fd5b61108a86866000818110610ffc57fe5b905060200201356001600160a01b0316336110707f00000000000000000000000000000000000000000000000000000000000000008a8a600081811061103e57fe5b905060200201356001600160a01b03168b8b600181811061105b57fe5b905060200201356001600160a01b0316613201565b8560008151811061107d57fe5b60200260200101516133f8565b6110c982878780806020026020016040519081016040528093929190818152602001838360200280828437600092019190915250899250613555915050565b509695505050505050565b8042811015611118576040805162461bcd60e51b815260206004820152601760248201526000805160206143fd833981519152604482015290519081900360640190fd5b7f00000000000000000000000000000000000000000000000000000000000000006001600160a01b03168585600081811061114f57fe5b905060200201356001600160a01b03166001600160a01b0316146111a8576040805162461bcd60e51b815260206004820152601c6024820152600080516020614393833981519152604482015290519081900360640190fd5b60003490507f00000000000000000000000000000000000000000000000000000000000000006001600160a01b031663d0e30db0826040518263ffffffff1660e01b81526004016000604051808303818588803b15801561120857600080fd5b505af115801561121c573d6000803e3d6000fd5b50505050507f00000000000000000000000000000000000000000000000000000000000000006001600160a01b031663a9059cbb61129e7f00000000000000000000000000000000000000000000000000000000000000008989600081811061128157fe5b905060200201356001600160a01b03168a8a600181811061105b57fe5b836040518363ffffffff1660e01b815260040180836001600160a01b03166001600160a01b0316815260200182815260200192505050602060405180830381600087803b1580156112ee57600080fd5b505af1158015611302573d6000803e3d6000fd5b505050506040513d602081101561131857600080fd5b505161132057fe5b60008686600019810181811061133257fe5b905060200201356001600160a01b03166001600160a01b03166370a08231866040518263ffffffff1660e01b815260040180826001600160a01b03166001600160a01b0316815260200191505060206040518083038186803b15801561139757600080fd5b505afa1580156113ab573d6000803e3d6000fd5b505050506040513d60208110156113c157600080fd5b505160408051602089810282810182019093528982529293506114039290918a918a918291850190849080828437600092019190915250899250613705915050565b876114b5828989600019810181811061141857fe5b905060200201356001600160a01b03166001600160a01b03166370a08231896040518263ffffffff1660e01b815260040180826001600160a01b03166001600160a01b0316815260200191505060206040518083038186803b15801561147d57600080fd5b505afa158015611491573d6000803e3d6000fd5b505050506040513d60208110156114a757600080fd5b50519063ffffffff6139a616565b10156114f25760405162461bcd60e51b815260040180806020018281038252602a815260200180614369602a913960400191505060405180910390fd5b5050505050505050565b8042811015611540576040805162461bcd60e51b815260206004820152601760248201526000805160206143fd833981519152604482015290519081900360640190fd5b6115988585600081811061155057fe5b905060200201356001600160a01b0316336115927f00000000000000000000000000000000000000000000000000000000000000008989600081811061128157fe5b8a6133f8565b6000858560001981018181106115aa57fe5b905060200201356001600160a01b03166001600160a01b03166370a08231856040518263ffffffff1660e01b815260040180826001600160a01b03166001600160a01b0316815260200191505060206040518083038186803b15801561160f57600080fd5b505afa158015611623573d6000803e3d6000fd5b505050506040513d602081101561163957600080fd5b5051604080516020888102828101820190935288825292935061167b929091899189918291850190849080828437600092019190915250889250613705915050565b866114b5828888600019810181811061169057fe5b905060200201356001600160a01b03166001600160a01b03166370a08231886040518263ffffffff1660e01b815260040180826001600160a01b03166001600160a01b0316815260200191505060206040518083038186803b15801561147d57600080fd5b6060814281101561173b576040805162461bcd60e51b815260206004820152601760248201526000805160206143fd833981519152604482015290519081900360640190fd5b6001600160a01b037f0000000000000000000000000000000000000000000000000000000000000000168686600019810181811061177557fe5b905060200201356001600160a01b03166001600160a01b0316146117ce576040805162461bcd60e51b815260206004820152601c6024820152600080516020614393833981519152604482015290519081900360640190fd5b61182c7f0000000000000000000000000000000000000000000000000000000000000000898888808060200260200160405190810160405280939291908181526020018383602002808284376000920191909152506132c192505050565b9150868260018451038151811061183f57fe5b602002602001015110156118845760405162461bcd60e51b815260040180806020018281038252602a815260200180614369602a913960400191505060405180910390fd5b61189486866000818110610ffc57fe5b6118d382878780806020026020016040519081016040528093929190818152602001838360200280828437600092019190915250309250613555915050565b7f00000000000000000000000000000000000000000000000000000000000000006001600160a01b0316632e1a7d4d8360018551038151811061191257fe5b60200260200101516040518263ffffffff1660e01b815260040180828152602001915050600060405180830381600087803b15801561195057600080fd5b505af1158015611964573d6000803e3d6000fd5b505050506110c9848360018551038151811061197c57fe5b60200260200101516139e8565b6000806119d77f00000000000000000000000000000000000000000000000000000000000000008d7f0000000000000000000000000000000000000000000000000000000000000000613201565b90506000866119e6578b6119ea565b6000195b6040805163d505accf60e01b815233600482015230602482015260448101839052606481018b905260ff8916608482015260a4810188905260c4810187905290519192506001600160a01b0384169163d505accf9160e48082019260009290919082900301818387803b158015611a6057600080fd5b505af1158015611a74573d6000803e3d6000fd5b50505050611a868d8d8d8d8d8d6122a3565b9d9c50505050505050505050505050565b60608142811015611add576040805162461bcd60e51b815260206004820152601760248201526000805160206143fd833981519152604482015290519081900360640190fd5b7f00000000000000000000000000000000000000000000000000000000000000006001600160a01b031686866000818110611b1457fe5b905060200201356001600160a01b03166001600160a01b031614611b6d576040805162461bcd60e51b815260206004820152601c6024820152600080516020614393833981519152604482015290519081900360640190fd5b611bcb7f0000000000000000000000000000000000000000000000000000000000000000888888808060200260200160405190810160405280939291908181526020018383602002808284376000920191909152506130b492505050565b91503482600081518110611bdb57fe5b60200260200101511115611c205760405162461bcd60e51b81526004018080602001828103825260268152602001806144626026913960400191505060405180910390fd5b7f00000000000000000000000000000000000000000000000000000000000000006001600160a01b031663d0e30db083600081518110611c5c57fe5b60200260200101516040518263ffffffff1660e01b81526004016000604051808303818588803b158015611c8f57600080fd5b505af1158015611ca3573d6000803e3d6000fd5b50505050507f00000000000000000000000000000000000000000000000000000000000000006001600160a01b031663a9059cbb611d087f00000000000000000000000000000000000000000000000000000000000000008989600081811061128157fe5b84600081518110611d1557fe5b60200260200101516040518363ffffffff1660e01b815260040180836001600160a01b03166001600160a01b0316815260200182815260200192505050602060405180830381600087803b158015611d6c57600080fd5b505af1158015611d80573d6000803e3d6000fd5b505050506040513d6020811015611d9657600080fd5b5051611d9e57fe5b611ddd82878780806020026020016040519081016040528093929190818152602001838360200280828437600092019190915250899250613555915050565b81600081518110611dea57fe5b6020026020010151341115611e1957611e193383600081518110611e0a57fe5b602002602001015134036139e8565b5095945050505050565b6000610ca4848484613adb565b60608142811015611e76576040805162461bcd60e51b815260206004820152601760248201526000805160206143fd833981519152604482015290519081900360640190fd5b611ed47f0000000000000000000000000000000000000000000000000000000000000000898888808060200260200160405190810160405280939291908181526020018383602002808284376000920191909152506130b492505050565b91508682600081518110611ee457fe5b60200260200101511115610fec5760405162461bcd60e51b81526004018080602001828103825260268152602001806144626026913960400191505060405180910390fd5b7f000000000000000000000000000000000000000000000000000000000000000081565b60608142811015611f93576040805162461bcd60e51b815260206004820152601760248201526000805160206143fd833981519152604482015290519081900360640190fd5b7f00000000000000000000000000000000000000000000000000000000000000006001600160a01b031686866000818110611fca57fe5b905060200201356001600160a01b03166001600160a01b031614612023576040805162461bcd60e51b815260206004820152601c6024820152600080516020614393833981519152604482015290519081900360640190fd5b6120817f0000000000000000000000000000000000000000000000000000000000000000348888808060200260200160405190810160405280939291908181526020018383602002808284376000920191909152506132c192505050565b9150868260018451038151811061209457fe5b602002602001015110156120d95760405162461bcd60e51b815260040180806020018281038252602a815260200180614369602a913960400191505060405180910390fd5b7f00000000000000000000000000000000000000000000000000000000000000006001600160a01b031663d0e30db08360008151811061211557fe5b60200260200101516040518263ffffffff1660e01b81526004016000604051808303818588803b15801561214857600080fd5b505af115801561215c573d6000803e3d6000fd5b50505050507f00000000000000000000000000000000000000000000000000000000000000006001600160a01b031663a9059cbb6121c17f00000000000000000000000000000000000000000000000000000000000000008989600081811061128157fe5b846000815181106121ce57fe5b60200260200101516040518363ffffffff1660e01b815260040180836001600160a01b03166001600160a01b0316815260200182815260200192505050602060405180830381600087803b15801561222557600080fd5b505af1158015612239573d6000803e3d6000fd5b505050506040513d602081101561224f57600080fd5b505161225757fe5b611e1982878780806020026020016040519081016040528093929190818152602001838360200280828437600092019190915250899250613555915050565b6000610ca4848484613bcb565b600081428110156122e9576040805162461bcd60e51b815260206004820152601760248201526000805160206143fd833981519152604482015290519081900360640190fd5b612318887f00000000000000000000000000000000000000000000000000000000000000008989893089612424565b604080516370a0823160e01b8152306004820152905191945061239c92508a9187916001600160a01b038416916370a0823191602480820192602092909190829003018186803b15801561236b57600080fd5b505afa15801561237f573d6000803e3d6000fd5b505050506040513d602081101561239557600080fd5b5051613c77565b7f00000000000000000000000000000000000000000000000000000000000000006001600160a01b0316632e1a7d4d836040518263ffffffff1660e01b815260040180828152602001915050600060405180830381600087803b15801561240257600080fd5b505af1158015612416573d6000803e3d6000fd5b505050506110c984836139e8565b600080824281101561246b576040805162461bcd60e51b815260206004820152601760248201526000805160206143fd833981519152604482015290519081900360640190fd5b60006124987f00000000000000000000000000000000000000000000000000000000000000008c8c613201565b604080516323b872dd60e01b81523360048201526001600160a01b03831660248201819052604482018d9052915192935090916323b872dd916064808201926020929091908290030181600087803b1580156124f357600080fd5b505af1158015612507573d6000803e3d6000fd5b505050506040513d602081101561251d57600080fd5b50506040805163226bf2d160e21b81526001600160a01b03888116600483015282516000938493928616926389afcb44926024808301939282900301818787803b15801561256a57600080fd5b505af115801561257e573d6000803e3d6000fd5b505050506040513d604081101561259457600080fd5b508051602090910151909250905060006125ae8e8e613de1565b509050806001600160a01b03168e6001600160a01b0316146125d15781836125d4565b82825b90975095508a8710156126185760405162461bcd60e51b81526004018080602001828103825260258152602001806143b36025913960400191505060405180910390fd5b898610156126575760405162461bcd60e51b81526004018080602001828103825260258152602001806143d86025913960400191505060405180910390fd5b505050505097509795505050505050565b7f000000000000000000000000000000000000000000000000000000000000000081565b6060610cd97f000000000000000000000000000000000000000000000000000000000000000084846132c1565b80428110156126fd576040805162461bcd60e51b815260206004820152601760248201526000805160206143fd833981519152604482015290519081900360640190fd5b6001600160a01b037f0000000000000000000000000000000000000000000000000000000000000000168585600019810181811061273757fe5b905060200201356001600160a01b03166001600160a01b031614612790576040805162461bcd60e51b815260206004820152601c6024820152600080516020614393833981519152604482015290519081900360640190fd5b6127a08585600081811061155057fe5b6127de858580806020026020016040519081016040528093929190818152602001838360200280828437600092019190915250309250613705915050565b604080516370a0823160e01b815230600482015290516000916001600160a01b037f000000000000000000000000000000000000000000000000000000000000000016916370a0823191602480820192602092909190829003018186803b15801561284857600080fd5b505afa15801561285c573d6000803e3d6000fd5b505050506040513d602081101561287257600080fd5b50519050868110156128b55760405162461bcd60e51b815260040180806020018281038252602a815260200180614369602a913960400191505060405180910390fd5b7f00000000000000000000000000000000000000000000000000000000000000006001600160a01b0316632e1a7d4d826040518263ffffffff1660e01b815260040180828152602001915050600060405180830381600087803b15801561291b57600080fd5b505af115801561292f573d6000803e3d6000fd5b505050506114f284826139e8565b60608142811015612983576040805162461bcd60e51b815260206004820152601760248201526000805160206143fd833981519152604482015290519081900360640190fd5b6001600160a01b037f000000000000000000000000000000000000000000000000000000000000000016868660001981018181106129bd57fe5b905060200201356001600160a01b03166001600160a01b031614612a16576040805162461bcd60e51b815260206004820152601c6024820152600080516020614393833981519152604482015290519081900360640190fd5b612a747f0000000000000000000000000000000000000000000000000000000000000000898888808060200260200160405190810160405280939291908181526020018383602002808284376000920191909152506130b492505050565b91508682600081518110612a8457fe5b602002602001015111156118845760405162461bcd60e51b81526004018080602001828103825260268152602001806144626026913960400191505060405180910390fd5b6000808242811015612b10576040805162461bcd60e51b815260206004820152601760248201526000805160206143fd833981519152604482015290519081900360640190fd5b612b3f897f00000000000000000000000000000000000000000000000000000000000000008a8a8a308a612424565b9093509150612b4f898685613c77565b7f00000000000000000000000000000000000000000000000000000000000000006001600160a01b0316632e1a7d4d836040518263ffffffff1660e01b815260040180828152602001915050600060405180830381600087803b158015612bb557600080fd5b505af1158015612bc9573d6000803e3d6000fd5b50505050612bd785836139e8565b50965096945050505050565b60008060008342811015612c2c576040805162461bcd60e51b815260206004820152601760248201526000805160206143fd833981519152604482015290519081900360640190fd5b612c3a8c8c8c8c8c8c613ebf565b90945092506000612c6c7f00000000000000000000000000000000000000000000000000000000000000008e8e613201565b9050612c7a8d3383886133f8565b612c868c3383876133f8565b806001600160a01b0316636a627842886040518263ffffffff1660e01b815260040180826001600160a01b03166001600160a01b03168152602001915050602060405180830381600087803b158015612cde57600080fd5b505af1158015612cf2573d6000803e3d6000fd5b505050506040513d6020811015612d0857600080fd5b5051949d939c50939a509198505050505050505050565b60008060008342811015612d68576040805162461bcd60e51b815260206004820152601760248201526000805160206143fd833981519152604482015290519081900360640190fd5b612d968a7f00000000000000000000000000000000000000000000000000000000000000008b348c8c613ebf565b90945092506000612de87f00000000000000000000000000000000000000000000000000000000000000008c7f0000000000000000000000000000000000000000000000000000000000000000613201565b9050612df68b3383886133f8565b7f00000000000000000000000000000000000000000000000000000000000000006001600160a01b031663d0e30db0856040518263ffffffff1660e01b81526004016000604051808303818588803b158015612e5157600080fd5b505af1158015612e65573d6000803e3d6000fd5b50505050507f00000000000000000000000000000000000000000000000000000000000000006001600160a01b031663a9059cbb82866040518363ffffffff1660e01b815260040180836001600160a01b03166001600160a01b0316815260200182815260200192505050602060405180830381600087803b158015612eea57600080fd5b505af1158015612efe573d6000803e3d6000fd5b505050506040513d6020811015612f1457600080fd5b5051612f1c57fe5b806001600160a01b0316636a627842886040518263ffffffff1660e01b815260040180826001600160a01b03166001600160a01b03168152602001915050602060405180830381600087803b158015612f7457600080fd5b505af1158015612f88573d6000803e3d6000fd5b505050506040513d6020811015612f9e57600080fd5b5051925034841015612fb657612fb6338534036139e8565b505096509650969350505050565b60008084116130045760405162461bcd60e51b815260040180806020018281038252602a8152602001806144ab602a913960400191505060405180910390fd5b6000831180156130145750600082115b61304f5760405162461bcd60e51b81526004018080602001828103825260278152602001806145246027913960400191505060405180910390fd5b6000613063856103e563ffffffff61413316565b90506000613077828563ffffffff61413316565b9050600061309d83613091886103e863ffffffff61413316565b9063ffffffff61418c16565b90508082816130a857fe5b04979650505050505050565b606060028251101561310d576040805162461bcd60e51b815260206004820152601d60248201527f42657261537761704c6962726172793a20494e56414c49445f50415448000000604482015290519081900360640190fd5b815167ffffffffffffffff8111801561312557600080fd5b5060405190808252806020026020018201604052801561314f578160200160208202803683370190505b509050828160018351038151811061316357fe5b60209081029190910101528151600019015b80156131f9576000806131b28786600186038151811061319157fe5b60200260200101518786815181106131a557fe5b60200260200101516141e6565b915091506131d48484815181106131c557fe5b60200260200101518383613adb565b8460018503815181106131e357fe5b6020908102919091010152505060001901613175565b509392505050565b60008060006132108585613de1565b604080516bffffffffffffffffffffffff19606094851b811660208084019190915293851b81166034830152825160288184030181526048830184528051908501206001600160f81b031960688401529a90941b9093166069840152607d8301989098527fe2e87433120e32c4738a7d8f3271f3d872cbe16241d67537139158d90bac61d3609d808401919091528851808403909101815260bd909201909752805196019590952095945050505050565b606060028251101561331a576040805162461bcd60e51b815260206004820152601d60248201527f42657261537761704c6962726172793a20494e56414c49445f50415448000000604482015290519081900360640190fd5b815167ffffffffffffffff8111801561333257600080fd5b5060405190808252806020026020018201604052801561335c578160200160208202803683370190505b509050828160008151811061336d57fe5b60200260200101818152505060005b60018351038110156131f9576000806133b28786858151811061339b57fe5b60200260200101518786600101815181106131a557fe5b915091506133d48484815181106133c557fe5b60200260200101518383612fc4565b8484600101815181106133e357fe5b6020908102919091010152505060010161337c565b604080516001600160a01b0385811660248301528481166044830152606480830185905283518084039091018152608490920183526020820180516001600160e01b03166323b872dd60e01b17815292518251600094606094938a169392918291908083835b6020831061347d5780518252601f19909201916020918201910161345e565b6001836020036101000a0380198251168184511680821785525050505050509050019150506000604051808303816000865af19150503d80600081146134df576040519150601f19603f3d011682016040523d82523d6000602084013e6134e4565b606091505b5091509150818015613512575080511580613512575080806020019051602081101561350f57600080fd5b50515b61354d5760405162461bcd60e51b81526004018080602001828103825260248152602001806144d56024913960400191505060405180910390fd5b505050505050565b60005b60018351038110156136ff5760008084838151811061357357fe5b602002602001015185846001018151811061358a57fe5b60200260200101519150915060006135a28383613de1565b50905060008785600101815181106135b657fe5b60200260200101519050600080836001600160a01b0316866001600160a01b0316146135e4578260006135e8565b6000835b91509150600060028a510388106135ff5788613640565b6136407f0000000000000000000000000000000000000000000000000000000000000000878c8b6002018151811061363357fe5b6020026020010151613201565b905061366d7f00000000000000000000000000000000000000000000000000000000000000008888613201565b6001600160a01b0316636d9a640a8484846040518463ffffffff1660e01b815260040180848152602001838152602001826001600160a01b03166001600160a01b031681526020019350505050600060405180830381600087803b1580156136d457600080fd5b505af11580156136e8573d6000803e3d6000fd5b505060019099019850613558975050505050505050565b50505050565b60005b60018351038110156139a15760008084838151811061372357fe5b602002602001015185846001018151811061373a57fe5b60200260200101519150915060006137528383613de1565b50905060006137827f00000000000000000000000000000000000000000000000000000000000000008585613201565b9050600080600080846001600160a01b0316630902f1ac6040518163ffffffff1660e01b815260040160606040518083038186803b1580156137c357600080fd5b505afa1580156137d7573d6000803e3d6000fd5b505050506040513d60608110156137ed57600080fd5b5080516020909101516001600160701b0391821693501690506000806001600160a01b038a811690891614613823578284613826565b83835b91509150613884828b6001600160a01b03166370a082318a6040518263ffffffff1660e01b815260040180826001600160a01b03166001600160a01b0316815260200191505060206040518083038186803b15801561147d57600080fd5b9550613891868383612fc4565b945050505050600080856001600160a01b0316886001600160a01b0316146138bb578260006138bf565b6000835b91509150600060028c51038a106138d6578a61390a565b61390a7f0000000000000000000000000000000000000000000000000000000000000000898e8d6002018151811061363357fe5b9050856001600160a01b0316636d9a640a8484846040518463ffffffff1660e01b815260040180848152602001838152602001826001600160a01b03166001600160a01b031681526020019350505050600060405180830381600087803b15801561397457600080fd5b505af1158015613988573d6000803e3d6000fd5b50506001909b019a506137089950505050505050505050565b505050565b6000610cd983836040518060400160405280601e81526020017f536166654d6174683a207375627472616374696f6e206f766572666c6f7700008152506142ad565b604080516000808252602082019092526001600160a01b0384169083906040518082805190602001908083835b60208310613a345780518252601f199092019160209182019101613a15565b6001836020036101000a03801982511681845116808217855250505050505090500191505060006040518083038185875af1925050503d8060008114613a96576040519150601f19603f3d011682016040523d82523d6000602084013e613a9b565b606091505b50509050806139a15760405162461bcd60e51b81526004018080602001828103825260238152602001806144886023913960400191505060405180910390fd5b6000808411613b1b5760405162461bcd60e51b815260040180806020018281038252602b8152602001806144f9602b913960400191505060405180910390fd5b600083118015613b2b5750600082115b613b665760405162461bcd60e51b81526004018080602001828103825260278152602001806145246027913960400191505060405180910390fd5b6000613b8a6103e8613b7e868863ffffffff61413316565b9063ffffffff61413316565b90506000613ba46103e5613b7e868963ffffffff6139a616565b9050613bc16001828481613bb457fe5b049063ffffffff61418c16565b9695505050505050565b6000808411613c0b5760405162461bcd60e51b81526004018080602001828103825260248152602001806143456024913960400191505060405180910390fd5b600083118015613c1b5750600082115b613c565760405162461bcd60e51b81526004018080602001828103825260278152602001806145246027913960400191505060405180910390fd5b82613c67858463ffffffff61413316565b81613c6e57fe5b04949350505050565b604080516001600160a01b038481166024830152604480830185905283518084039091018152606490920183526020820180516001600160e01b031663a9059cbb60e01b178152925182516000946060949389169392918291908083835b60208310613cf45780518252601f199092019160209182019101613cd5565b6001836020036101000a0380198251168184511680821785525050505050509050019150506000604051808303816000865af19150503d8060008114613d56576040519150601f19603f3d011682016040523d82523d6000602084013e613d5b565b606091505b5091509150818015613d89575080511580613d895750808060200190516020811015613d8657600080fd5b50515b613dda576040805162461bcd60e51b815260206004820152601f60248201527f5472616e7366657248656c7065723a205452414e534645525f4641494c454400604482015290519081900360640190fd5b5050505050565b600080826001600160a01b0316846001600160a01b03161415613e355760405162461bcd60e51b815260040180806020018281038252602481526020018061441d6024913960400191505060405180910390fd5b826001600160a01b0316846001600160a01b031610613e55578284613e58565b83835b90925090506001600160a01b038216613eb8576040805162461bcd60e51b815260206004820152601d60248201527f42657261537761704c6962726172793a205a45524f5f41444452455353000000604482015290519081900360640190fd5b9250929050565b6040805163e6a4390560e01b81526001600160a01b03888116600483015287811660248301529151600092839283927f00000000000000000000000000000000000000000000000000000000000000009092169163e6a4390591604480820192602092909190829003018186803b158015613f3957600080fd5b505afa158015613f4d573d6000803e3d6000fd5b505050506040513d6020811015613f6357600080fd5b50516001600160a01b0316141561401657604080516364e329cb60e11b81526001600160a01b038a81166004830152898116602483015291517f00000000000000000000000000000000000000000000000000000000000000009092169163c9c65396916044808201926020929091908290030181600087803b158015613fe957600080fd5b505af1158015613ffd573d6000803e3d6000fd5b505050506040513d602081101561401357600080fd5b50505b6000806140447f00000000000000000000000000000000000000000000000000000000000000008b8b6141e6565b91509150816000148015614056575080155b1561406657879350869250614126565b6000614073898484613bcb565b90508781116140c657858110156140bb5760405162461bcd60e51b81526004018080602001828103825260258152602001806143d86025913960400191505060405180910390fd5b889450925082614124565b60006140d3898486613bcb565b9050898111156140df57fe5b8781101561411e5760405162461bcd60e51b81526004018080602001828103825260258152602001806143b36025913960400191505060405180910390fd5b94508793505b505b5050965096945050505050565b60008261414257506000610cdc565b8282028284828161414f57fe5b0414610cd95760405162461bcd60e51b81526004018080602001828103825260218152602001806144416021913960400191505060405180910390fd5b600082820183811015610cd9576040805162461bcd60e51b815260206004820152601b60248201527f536166654d6174683a206164646974696f6e206f766572666c6f770000000000604482015290519081900360640190fd5b60008060006141f58585613de1565b509050600080614206888888613201565b6001600160a01b0316630902f1ac6040518163ffffffff1660e01b815260040160606040518083038186803b15801561423e57600080fd5b505afa158015614252573d6000803e3d6000fd5b505050506040513d606081101561426857600080fd5b5080516020909101516001600160701b0391821693501690506001600160a01b038781169084161461429b57808261429e565b81815b90999098509650505050505050565b6000818484111561433c5760405162461bcd60e51b81526004018080602001828103825283818151815260200191508051906020019080838360005b838110156143015781810151838201526020016142e9565b50505050905090810190601f16801561432e5780820380516001836020036101000a031916815260200191505b509250505060405180910390fd5b50505090039056fe42657261537761704c6962726172793a20494e53554646494349454e545f414d4f554e544265726153776170526f757465723a20494e53554646494349454e545f4f55545055545f414d4f554e544265726153776170526f757465723a20494e56414c49445f50415448000000004265726153776170526f757465723a20494e53554646494349454e545f415f414d4f554e544265726153776170526f757465723a20494e53554646494349454e545f425f414d4f554e544265726153776170526f757465723a204558504952454400000000000000000042657261537761704c6962726172793a204944454e544943414c5f414444524553534553536166654d6174683a206d756c7469706c69636174696f6e206f766572666c6f774265726153776170526f757465723a204558434553534956455f494e5055545f414d4f554e545472616e7366657248656c7065723a20424e425f5452414e534645525f4641494c454442657261537761704c6962726172793a20494e53554646494349454e545f494e5055545f414d4f554e545472616e7366657248656c7065723a205452414e534645525f46524f4d5f4641494c454442657261537761704c6962726172793a20494e53554646494349454e545f4f55545055545f414d4f554e5442657261537761704c6962726172793a20494e53554646494349454e545f4c4951554944495459a2646970667358221220275891ede4b6795859983422fada8226681be0f6bf916d6ceb2d8524b49c8afd64736f6c63430006060033",
  "linkReferences": {},
  "deployedLinkReferences": {}
}