{
  "_format": "hh-sol-artifact-1",
  "contractName": "BeraRouter01",
  "sourceName": "contracts/factory/BeraRouter01.sol",
  "abi": [
    {
      "inputs": [
        {
          "internalType": "address",
          "name": "_factory",
          "type": "address"
        },
        {
          "internalType": "address",
          "name": "_WETH",
          "type": "address"
        }
      ],
      "stateMutability": "nonpayable",
      "type": "constructor"
    },
    {
      "inputs": [],
      "name": "WETH",
      "outputs": [
        {
          "internalType": "address",
          "name": "",
          "type": "address"
        }
      ],
      "stateMutability": "view",
      "type": "function"
    },
    {
      "inputs": [
        {
          "internalType": "address",
          "name": "tokenA",
          "type": "address"
        },
        {
          "internalType": "address",
          "name": "tokenB",
          "type": "address"
        },
        {
          "internalType": "uint256",
          "name": "amountADesired",
          "type": "uint256"
        },
        {
          "internalType": "uint256",
          "name": "amountBDesired",
          "type": "uint256"
        },
        {
          "internalType": "uint256",
          "name": "amountAMin",
          "type": "uint256"
        },
        {
          "internalType": "uint256",
          "name": "amountBMin",
          "type": "uint256"
        },
        {
          "internalType": "address",
          "name": "to",
          "type": "address"
        },
        {
          "internalType": "uint256",
          "name": "deadline",
          "type": "uint256"
        }
      ],
      "name": "addLiquidity",
      "outputs": [
        {
          "internalType": "uint256",
          "name": "amountA",
          "type": "uint256"
        },
        {
          "internalType": "uint256",
          "name": "amountB",
          "type": "uint256"
        },
        {
          "internalType": "uint256",
          "name": "liquidity",
          "type": "uint256"
        }
      ],
      "stateMutability": "nonpayable",
      "type": "function"
    },
    {
      "inputs": [
        {
          "internalType": "address",
          "name": "token",
          "type": "address"
        },
        {
          "internalType": "uint256",
          "name": "amountTokenDesired",
          "type": "uint256"
        },
        {
          "internalType": "uint256",
          "name": "amountTokenMin",
          "type": "uint256"
        },
        {
          "internalType": "uint256",
          "name": "amountETHMin",
          "type": "uint256"
        },
        {
          "internalType": "address",
          "name": "to",
          "type": "address"
        },
        {
          "internalType": "uint256",
          "name": "deadline",
          "type": "uint256"
        }
      ],
      "name": "addLiquidityETH",
      "outputs": [
        {
          "internalType": "uint256",
          "name": "amountToken",
          "type": "uint256"
        },
        {
          "internalType": "uint256",
          "name": "amountETH",
          "type": "uint256"
        },
        {
          "internalType": "uint256",
          "name": "liquidity",
          "type": "uint256"
        }
      ],
      "stateMutability": "payable",
      "type": "function"
    },
    {
      "inputs": [],
      "name": "factory",
      "outputs": [
        {
          "internalType": "address",
          "name": "",
          "type": "address"
        }
      ],
      "stateMutability": "view",
      "type": "function"
    },
    {
      "inputs": [
        {
          "internalType": "uint256",
          "name": "amountOut",
          "type": "uint256"
        },
        {
          "internalType": "uint256",
          "name": "reserveIn",
          "type": "uint256"
        },
        {
          "internalType": "uint256",
          "name": "reserveOut",
          "type": "uint256"
        }
      ],
      "name": "getAmountIn",
      "outputs": [
        {
          "internalType": "uint256",
          "name": "amountIn",
          "type": "uint256"
        }
      ],
      "stateMutability": "pure",
      "type": "function"
    },
    {
      "inputs": [
        {
          "internalType": "uint256",
          "name": "amountIn",
          "type": "uint256"
        },
        {
          "internalType": "uint256",
          "name": "reserveIn",
          "type": "uint256"
        },
        {
          "internalType": "uint256",
          "name": "reserveOut",
          "type": "uint256"
        }
      ],
      "name": "getAmountOut",
      "outputs": [
        {
          "internalType": "uint256",
          "name": "amountOut",
          "type": "uint256"
        }
      ],
      "stateMutability": "pure",
      "type": "function"
    },
    {
      "inputs": [
        {
          "internalType": "uint256",
          "name": "amountOut",
          "type": "uint256"
        },
        {
          "internalType": "address[]",
          "name": "path",
          "type": "address[]"
        }
      ],
      "name": "getAmountsIn",
      "outputs": [
        {
          "internalType": "uint256[]",
          "name": "amounts",
          "type": "uint256[]"
        }
      ],
      "stateMutability": "view",
      "type": "function"
    },
    {
      "inputs": [
        {
          "internalType": "uint256",
          "name": "amountIn",
          "type": "uint256"
        },
        {
          "internalType": "address[]",
          "name": "path",
          "type": "address[]"
        }
      ],
      "name": "getAmountsOut",
      "outputs": [
        {
          "internalType": "uint256[]",
          "name": "amounts",
          "type": "uint256[]"
        }
      ],
      "stateMutability": "view",
      "type": "function"
    },
    {
      "inputs": [
        {
          "internalType": "uint256",
          "name": "amountA",
          "type": "uint256"
        },
        {
          "internalType": "uint256",
          "name": "reserveA",
          "type": "uint256"
        },
        {
          "internalType": "uint256",
          "name": "reserveB",
          "type": "uint256"
        }
      ],
      "name": "quote",
      "outputs": [
        {
          "internalType": "uint256",
          "name": "amountB",
          "type": "uint256"
        }
      ],
      "stateMutability": "pure",
      "type": "function"
    },
    {
      "inputs": [
        {
          "internalType": "address",
          "name": "tokenA",
          "type": "address"
        },
        {
          "internalType": "address",
          "name": "tokenB",
          "type": "address"
        },
        {
          "internalType": "uint256",
          "name": "liquidity",
          "type": "uint256"
        },
        {
          "internalType": "uint256",
          "name": "amountAMin",
          "type": "uint256"
        },
        {
          "internalType": "uint256",
          "name": "amountBMin",
          "type": "uint256"
        },
        {
          "internalType": "address",
          "name": "to",
          "type": "address"
        },
        {
          "internalType": "uint256",
          "name": "deadline",
          "type": "uint256"
        }
      ],
      "name": "removeLiquidity",
      "outputs": [
        {
          "internalType": "uint256",
          "name": "amountA",
          "type": "uint256"
        },
        {
          "internalType": "uint256",
          "name": "amountB",
          "type": "uint256"
        }
      ],
      "stateMutability": "nonpayable",
      "type": "function"
    },
    {
      "inputs": [
        {
          "internalType": "address",
          "name": "token",
          "type": "address"
        },
        {
          "internalType": "uint256",
          "name": "liquidity",
          "type": "uint256"
        },
        {
          "internalType": "uint256",
          "name": "amountTokenMin",
          "type": "uint256"
        },
        {
          "internalType": "uint256",
          "name": "amountETHMin",
          "type": "uint256"
        },
        {
          "internalType": "address",
          "name": "to",
          "type": "address"
        },
        {
          "internalType": "uint256",
          "name": "deadline",
          "type": "uint256"
        }
      ],
      "name": "removeLiquidityETH",
      "outputs": [
        {
          "internalType": "uint256",
          "name": "amountToken",
          "type": "uint256"
        },
        {
          "internalType": "uint256",
          "name": "amountETH",
          "type": "uint256"
        }
      ],
      "stateMutability": "nonpayable",
      "type": "function"
    },
    {
      "inputs": [
        {
          "internalType": "address",
          "name": "token",
          "type": "address"
        },
        {
          "internalType": "uint256",
          "name": "liquidity",
          "type": "uint256"
        },
        {
          "internalType": "uint256",
          "name": "amountTokenMin",
          "type": "uint256"
        },
        {
          "internalType": "uint256",
          "name": "amountETHMin",
          "type": "uint256"
        },
        {
          "internalType": "address",
          "name": "to",
          "type": "address"
        },
        {
          "internalType": "uint256",
          "name": "deadline",
          "type": "uint256"
        },
        {
          "internalType": "bool",
          "name": "approveMax",
          "type": "bool"
        },
        {
          "internalType": "uint8",
          "name": "v",
          "type": "uint8"
        },
        {
          "internalType": "bytes32",
          "name": "r",
          "type": "bytes32"
        },
        {
          "internalType": "bytes32",
          "name": "s",
          "type": "bytes32"
        }
      ],
      "name": "removeLiquidityETHWithPermit",
      "outputs": [
        {
          "internalType": "uint256",
          "name": "amountToken",
          "type": "uint256"
        },
        {
          "internalType": "uint256",
          "name": "amountETH",
          "type": "uint256"
        }
      ],
      "stateMutability": "nonpayable",
      "type": "function"
    },
    {
      "inputs": [
        {
          "internalType": "address",
          "name": "tokenA",
          "type": "address"
        },
        {
          "internalType": "address",
          "name": "tokenB",
          "type": "address"
        },
        {
          "internalType": "uint256",
          "name": "liquidity",
          "type": "uint256"
        },
        {
          "internalType": "uint256",
          "name": "amountAMin",
          "type": "uint256"
        },
        {
          "internalType": "uint256",
          "name": "amountBMin",
          "type": "uint256"
        },
        {
          "internalType": "address",
          "name": "to",
          "type": "address"
        },
        {
          "internalType": "uint256",
          "name": "deadline",
          "type": "uint256"
        },
        {
          "internalType": "bool",
          "name": "approveMax",
          "type": "bool"
        },
        {
          "internalType": "uint8",
          "name": "v",
          "type": "uint8"
        },
        {
          "internalType": "bytes32",
          "name": "r",
          "type": "bytes32"
        },
        {
          "internalType": "bytes32",
          "name": "s",
          "type": "bytes32"
        }
      ],
      "name": "removeLiquidityWithPermit",
      "outputs": [
        {
          "internalType": "uint256",
          "name": "amountA",
          "type": "uint256"
        },
        {
          "internalType": "uint256",
          "name": "amountB",
          "type": "uint256"
        }
      ],
      "stateMutability": "nonpayable",
      "type": "function"
    },
    {
      "inputs": [
        {
          "internalType": "uint256",
          "name": "amountOut",
          "type": "uint256"
        },
        {
          "internalType": "address[]",
          "name": "path",
          "type": "address[]"
        },
        {
          "internalType": "address",
          "name": "to",
          "type": "address"
        },
        {
          "internalType": "uint256",
          "name": "deadline",
          "type": "uint256"
        }
      ],
      "name": "swapETHForExactTokens",
      "outputs": [
        {
          "internalType": "uint256[]",
          "name": "amounts",
          "type": "uint256[]"
        }
      ],
      "stateMutability": "payable",
      "type": "function"
    },
    {
      "inputs": [
        {
          "internalType": "uint256",
          "name": "amountOutMin",
          "type": "uint256"
        },
        {
          "internalType": "address[]",
          "name": "path",
          "type": "address[]"
        },
        {
          "internalType": "address",
          "name": "to",
          "type": "address"
        },
        {
          "internalType": "uint256",
          "name": "deadline",
          "type": "uint256"
        }
      ],
      "name": "swapExactETHForTokens",
      "outputs": [
        {
          "internalType": "uint256[]",
          "name": "amounts",
          "type": "uint256[]"
        }
      ],
      "stateMutability": "payable",
      "type": "function"
    },
    {
      "inputs": [
        {
          "internalType": "uint256",
          "name": "amountIn",
          "type": "uint256"
        },
        {
          "internalType": "uint256",
          "name": "amountOutMin",
          "type": "uint256"
        },
        {
          "internalType": "address[]",
          "name": "path",
          "type": "address[]"
        },
        {
          "internalType": "address",
          "name": "to",
          "type": "address"
        },
        {
          "internalType": "uint256",
          "name": "deadline",
          "type": "uint256"
        }
      ],
      "name": "swapExactTokensForETH",
      "outputs": [
        {
          "internalType": "uint256[]",
          "name": "amounts",
          "type": "uint256[]"
        }
      ],
      "stateMutability": "nonpayable",
      "type": "function"
    },
    {
      "inputs": [
        {
          "internalType": "uint256",
          "name": "amountIn",
          "type": "uint256"
        },
        {
          "internalType": "uint256",
          "name": "amountOutMin",
          "type": "uint256"
        },
        {
          "internalType": "address[]",
          "name": "path",
          "type": "address[]"
        },
        {
          "internalType": "address",
          "name": "to",
          "type": "address"
        },
        {
          "internalType": "uint256",
          "name": "deadline",
          "type": "uint256"
        }
      ],
      "name": "swapExactTokensForTokens",
      "outputs": [
        {
          "internalType": "uint256[]",
          "name": "amounts",
          "type": "uint256[]"
        }
      ],
      "stateMutability": "nonpayable",
      "type": "function"
    },
    {
      "inputs": [
        {
          "internalType": "uint256",
          "name": "amountOut",
          "type": "uint256"
        },
        {
          "internalType": "uint256",
          "name": "amountInMax",
          "type": "uint256"
        },
        {
          "internalType": "address[]",
          "name": "path",
          "type": "address[]"
        },
        {
          "internalType": "address",
          "name": "to",
          "type": "address"
        },
        {
          "internalType": "uint256",
          "name": "deadline",
          "type": "uint256"
        }
      ],
      "name": "swapTokensForExactETH",
      "outputs": [
        {
          "internalType": "uint256[]",
          "name": "amounts",
          "type": "uint256[]"
        }
      ],
      "stateMutability": "nonpayable",
      "type": "function"
    },
    {
      "inputs": [
        {
          "internalType": "uint256",
          "name": "amountOut",
          "type": "uint256"
        },
        {
          "internalType": "uint256",
          "name": "amountInMax",
          "type": "uint256"
        },
        {
          "internalType": "address[]",
          "name": "path",
          "type": "address[]"
        },
        {
          "internalType": "address",
          "name": "to",
          "type": "address"
        },
        {
          "internalType": "uint256",
          "name": "deadline",
          "type": "uint256"
        }
      ],
      "name": "swapTokensForExactTokens",
      "outputs": [
        {
          "internalType": "uint256[]",
          "name": "amounts",
          "type": "uint256[]"
        }
      ],
      "stateMutability": "nonpayable",
      "type": "function"
    },
    {
      "stateMutability": "payable",
      "type": "receive"
    }
  ],
  "bytecode": "0x60c060405234801561001057600080fd5b506040516136203803806136208339818101604052604081101561003357600080fd5b5080516020909101516001600160601b0319606092831b8116608052911b1660a05260805160601c60a05160601c6134e461013c600039806101285280610a015280610a3c5280610b335280610d5e52806110e8528061127952806113cc528061145452806116a952806119995280611c0c5280611c625280611c965280611d0a5280611eaa5280611ffa5280612082525080610bce5280610ca55280610e245280610e5d5280610f9852806111835280611319528061148652806115f95280611726528061191e528061194752806119775280611ae45280611c405280611f4a52806120b4528061294152806129845280612df35280612ea15280612f2152506134e46000f3fe6080604052600436106101185760003560e01c80638803dbee116100a0578063d06ca61f11610064578063d06ca61f14610742578063ded9382a146107f7578063e8e337001461086a578063f305d719146108ea578063fb3bdb411461093057610151565b80638803dbee146105d3578063ad5c464814610669578063ad615dec1461069a578063baa2abde146106d0578063c45a01551461072d57610151565b80632195995c116100e75780632195995c146103a557806338ed1739146104235780634a25d94a146104b95780637ff36ab51461054f57806385f8c259146101c257610151565b806302751cec14610156578063054d50d4146101c257806318cbafe51461020a5780631f00ca74146102f057610151565b3661015157336001600160a01b037f0000000000000000000000000000000000000000000000000000000000000000161461014f57fe5b005b600080fd5b34801561016257600080fd5b506101a9600480360360c081101561017957600080fd5b506001600160a01b0381358116916020810135916040820135916060810135916080820135169060a001356109b4565b6040805192835260208301919091528051918290030190f35b3480156101ce57600080fd5b506101f8600480360360608110156101e557600080fd5b5080359060208101359060400135610ace565b60408051918252519081900360200190f35b34801561021657600080fd5b506102a0600480360360a081101561022d57600080fd5b813591602081013591810190606081016040820135600160201b81111561025357600080fd5b82018360208201111561026557600080fd5b803590602001918460208302840111600160201b8311171561028657600080fd5b91935091506001600160a01b038135169060200135610ae3565b60408051602080825283518183015283519192839290830191858101910280838360005b838110156102dc5781810151838201526020016102c4565b505050509050019250505060405180910390f35b3480156102fc57600080fd5b506102a06004803603604081101561031357600080fd5b81359190810190604081016020820135600160201b81111561033457600080fd5b82018360208201111561034657600080fd5b803590602001918460208302840111600160201b8311171561036757600080fd5b919080806020026020016040519081016040528093929190818152602001838360200280828437600092019190915250929550610e1d945050505050565b3480156103b157600080fd5b506101a960048036036101608110156103c957600080fd5b506001600160a01b038135811691602081013582169160408201359160608101359160808201359160a08101359091169060c08101359060e081013515159060ff6101008201351690610120810135906101400135610e53565b34801561042f57600080fd5b506102a0600480360360a081101561044657600080fd5b813591602081013591810190606081016040820135600160201b81111561046c57600080fd5b82018360208201111561047e57600080fd5b803590602001918460208302840111600160201b8311171561049f57600080fd5b91935091506001600160a01b038135169060200135610f4d565b3480156104c557600080fd5b506102a0600480360360a08110156104dc57600080fd5b813591602081013591810190606081016040820135600160201b81111561050257600080fd5b82018360208201111561051457600080fd5b803590602001918460208302840111600160201b8311171561053557600080fd5b91935091506001600160a01b038135169060200135611098565b6102a06004803603608081101561056557600080fd5b81359190810190604081016020820135600160201b81111561058657600080fd5b82018360208201111561059857600080fd5b803590602001918460208302840111600160201b831117156105b957600080fd5b91935091506001600160a01b038135169060200135611231565b3480156105df57600080fd5b506102a0600480360360a08110156105f657600080fd5b813591602081013591810190606081016040820135600160201b81111561061c57600080fd5b82018360208201111561062e57600080fd5b803590602001918460208302840111600160201b8311171561064f57600080fd5b91935091506001600160a01b0381351690602001356115ae565b34801561067557600080fd5b5061067e6116a7565b604080516001600160a01b039092168252519081900360200190f35b3480156106a657600080fd5b506101f8600480360360608110156106bd57600080fd5b50803590602081013590604001356116cb565b3480156106dc57600080fd5b506101a9600480360360e08110156106f357600080fd5b506001600160a01b038135811691602081013582169160408201359160608101359160808201359160a08101359091169060c001356116d8565b34801561073957600080fd5b5061067e61191c565b34801561074e57600080fd5b506102a06004803603604081101561076557600080fd5b81359190810190604081016020820135600160201b81111561078657600080fd5b82018360208201111561079857600080fd5b803590602001918460208302840111600160201b831117156107b957600080fd5b919080806020026020016040519081016040528093929190818152602001838360200280828437600092019190915250929550611940945050505050565b34801561080357600080fd5b506101a9600480360361014081101561081b57600080fd5b506001600160a01b0381358116916020810135916040820135916060810135916080820135169060a08101359060c081013515159060ff60e0820135169061010081013590610120013561196d565b34801561087657600080fd5b506108cc600480360361010081101561088e57600080fd5b506001600160a01b038135811691602081013582169160408201359160608101359160808201359160a08101359160c0820135169060e00135611a81565b60408051938452602084019290925282820152519081900360600190f35b6108cc600480360360c081101561090057600080fd5b506001600160a01b0381358116916020810135916040820135916060810135916080820135169060a00135611bbd565b6102a06004803603608081101561094657600080fd5b81359190810190604081016020820135600160201b81111561096757600080fd5b82018360208201111561097957600080fd5b803590602001918460208302840111600160201b8311171561099a57600080fd5b91935091506001600160a01b038135169060200135611e62565b60008082428110156109fb576040805162461bcd60e51b8152602060048201526013602482015260008051602061341f833981519152604482015290519081900360640190fd5b610a2a897f00000000000000000000000000000000000000000000000000000000000000008a8a8a308a6116d8565b9093509150610a3a8986856121f1565b7f00000000000000000000000000000000000000000000000000000000000000006001600160a01b0316632e1a7d4d836040518263ffffffff1660e01b815260040180828152602001915050600060405180830381600087803b158015610aa057600080fd5b505af1158015610ab4573d6000803e3d6000fd5b50505050610ac28583612345565b50965096945050505050565b6000610adb84848461243d565b949350505050565b60608142811015610b29576040805162461bcd60e51b8152602060048201526013602482015260008051602061341f833981519152604482015290519081900360640190fd5b6001600160a01b037f00000000000000000000000000000000000000000000000000000000000000001686866000198101818110610b6357fe5b905060200201356001600160a01b03166001600160a01b031614610bc9576040805162461bcd60e51b8152602060048201526018602482015277084cae4c2a4deeae8cae47440929cac82989288bea082a8960431b604482015290519081900360640190fd5b610c277f00000000000000000000000000000000000000000000000000000000000000008988888080602002602001604051908101604052809392919081815260200183836020028082843760009201919091525061252d92505050565b91508682600184510381518110610c3a57fe5b60200260200101511015610c7f5760405162461bcd60e51b815260040180806020018281038252602681526020018061338b6026913960400191505060405180910390fd5b610d1d86866000818110610c8f57fe5b905060200201356001600160a01b031633610d037f00000000000000000000000000000000000000000000000000000000000000008a8a6000818110610cd157fe5b905060200201356001600160a01b03168b8b6001818110610cee57fe5b905060200201356001600160a01b0316612675565b85600081518110610d1057fe5b6020026020010151612735565b610d5c82878780806020026020016040519081016040528093929190818152602001838360200280828437600092019190915250309250612892915050565b7f00000000000000000000000000000000000000000000000000000000000000006001600160a01b0316632e1a7d4d83600185510381518110610d9b57fe5b60200260200101516040518263ffffffff1660e01b815260040180828152602001915050600060405180830381600087803b158015610dd957600080fd5b505af1158015610ded573d6000803e3d6000fd5b50505050610e128483600185510381518110610e0557fe5b6020026020010151612345565b509695505050505050565b6060610e4a7f00000000000000000000000000000000000000000000000000000000000000008484612ad8565b90505b92915050565b6000806000610e837f00000000000000000000000000000000000000000000000000000000000000008f8f612675565b9050600087610e92578c610e96565b6000195b6040805163d505accf60e01b815233600482015230602482015260448101839052606481018c905260ff8a16608482015260a4810189905260c4810188905290519192506001600160a01b0384169163d505accf9160e48082019260009290919082900301818387803b158015610f0c57600080fd5b505af1158015610f20573d6000803e3d6000fd5b50505050610f338f8f8f8f8f8f8f6116d8565b809450819550505050509b509b9950505050505050505050565b60608142811015610f93576040805162461bcd60e51b8152602060048201526013602482015260008051602061341f833981519152604482015290519081900360640190fd5b610ff17f00000000000000000000000000000000000000000000000000000000000000008988888080602002602001604051908101604052809392919081815260200183836020028082843760009201919091525061252d92505050565b9150868260018451038151811061100457fe5b602002602001015110156110495760405162461bcd60e51b815260040180806020018281038252602681526020018061338b6026913960400191505060405180910390fd5b61105986866000818110610c8f57fe5b610e1282878780806020026020016040519081016040528093929190818152602001838360200280828437600092019190915250899250612892915050565b606081428110156110de576040805162461bcd60e51b8152602060048201526013602482015260008051602061341f833981519152604482015290519081900360640190fd5b6001600160a01b037f0000000000000000000000000000000000000000000000000000000000000000168686600019810181811061111857fe5b905060200201356001600160a01b03166001600160a01b03161461117e576040805162461bcd60e51b8152602060048201526018602482015277084cae4c2a4deeae8cae47440929cac82989288bea082a8960431b604482015290519081900360640190fd5b6111dc7f000000000000000000000000000000000000000000000000000000000000000089888880806020026020016040519081016040528093929190818152602001838360200280828437600092019190915250612ad892505050565b915086826000815181106111ec57fe5b60200260200101511115610c7f5760405162461bcd60e51b815260040180806020018281038252602281526020018061348d6022913960400191505060405180910390fd5b60608142811015611277576040805162461bcd60e51b8152602060048201526013602482015260008051602061341f833981519152604482015290519081900360640190fd5b7f00000000000000000000000000000000000000000000000000000000000000006001600160a01b0316868660008181106112ae57fe5b905060200201356001600160a01b03166001600160a01b031614611314576040805162461bcd60e51b8152602060048201526018602482015277084cae4c2a4deeae8cae47440929cac82989288bea082a8960431b604482015290519081900360640190fd5b6113727f00000000000000000000000000000000000000000000000000000000000000003488888080602002602001604051908101604052809392919081815260200183836020028082843760009201919091525061252d92505050565b9150868260018451038151811061138557fe5b602002602001015110156113ca5760405162461bcd60e51b815260040180806020018281038252602681526020018061338b6026913960400191505060405180910390fd5b7f00000000000000000000000000000000000000000000000000000000000000006001600160a01b031663d0e30db08360008151811061140657fe5b60200260200101516040518263ffffffff1660e01b81526004016000604051808303818588803b15801561143957600080fd5b505af115801561144d573d6000803e3d6000fd5b50505050507f00000000000000000000000000000000000000000000000000000000000000006001600160a01b031663a9059cbb6114cf7f0000000000000000000000000000000000000000000000000000000000000000898960008181106114b257fe5b905060200201356001600160a01b03168a8a6001818110610cee57fe5b846000815181106114dc57fe5b60200260200101516040518363ffffffff1660e01b815260040180836001600160a01b03166001600160a01b0316815260200182815260200192505050602060405180830381600087803b15801561153357600080fd5b505af1158015611547573d6000803e3d6000fd5b505050506040513d602081101561155d57600080fd5b505161156557fe5b6115a482878780806020026020016040519081016040528093929190818152602001838360200280828437600092019190915250899250612892915050565b5095945050505050565b606081428110156115f4576040805162461bcd60e51b8152602060048201526013602482015260008051602061341f833981519152604482015290519081900360640190fd5b6116527f000000000000000000000000000000000000000000000000000000000000000089888880806020026020016040519081016040528093929190818152602001838360200280828437600092019190915250612ad892505050565b9150868260008151811061166257fe5b602002602001015111156110495760405162461bcd60e51b815260040180806020018281038252602281526020018061348d6022913960400191505060405180910390fd5b7f000000000000000000000000000000000000000000000000000000000000000081565b6000610adb848484612c0c565b600080824281101561171f576040805162461bcd60e51b8152602060048201526013602482015260008051602061341f833981519152604482015290519081900360640190fd5b600061174c7f00000000000000000000000000000000000000000000000000000000000000008c8c612675565b604080516323b872dd60e01b81523360048201526001600160a01b03831660248201819052604482018d9052915192935090916323b872dd916064808201926020929091908290030181600087803b1580156117a757600080fd5b505af11580156117bb573d6000803e3d6000fd5b505050506040513d60208110156117d157600080fd5b50506040805163226bf2d160e21b81526001600160a01b03888116600483015282516000938493928616926389afcb44926024808301939282900301818787803b15801561181e57600080fd5b505af1158015611832573d6000803e3d6000fd5b505050506040513d604081101561184857600080fd5b508051602090910151909250905060006118628e8e612cce565b509050806001600160a01b03168e6001600160a01b031614611885578183611888565b82825b90975095508a8710156118cc5760405162461bcd60e51b81526004018080602001828103825260218152602001806133b16021913960400191505060405180910390fd5b8986101561190b5760405162461bcd60e51b815260040180806020018281038252602181526020018061343f6021913960400191505060405180910390fd5b505050505097509795505050505050565b7f000000000000000000000000000000000000000000000000000000000000000081565b6060610e4a7f0000000000000000000000000000000000000000000000000000000000000000848461252d565b60008060006119bd7f00000000000000000000000000000000000000000000000000000000000000008e7f0000000000000000000000000000000000000000000000000000000000000000612675565b90506000876119cc578c6119d0565b6000195b6040805163d505accf60e01b815233600482015230602482015260448101839052606481018c905260ff8a16608482015260a4810189905260c4810188905290519192506001600160a01b0384169163d505accf9160e48082019260009290919082900301818387803b158015611a4657600080fd5b505af1158015611a5a573d6000803e3d6000fd5b50505050611a6c8e8e8e8e8e8e6109b4565b909f909e509c50505050505050505050505050565b60008060008342811015611aca576040805162461bcd60e51b8152602060048201526013602482015260008051602061341f833981519152604482015290519081900360640190fd5b611ad88c8c8c8c8c8c612dc2565b90945092506000611b0a7f00000000000000000000000000000000000000000000000000000000000000008e8e612675565b9050611b188d338388612735565b611b248c338387612735565b806001600160a01b0316636a627842886040518263ffffffff1660e01b815260040180826001600160a01b03166001600160a01b03168152602001915050602060405180830381600087803b158015611b7c57600080fd5b505af1158015611b90573d6000803e3d6000fd5b505050506040513d6020811015611ba657600080fd5b5051949d939c50939a509198505050505050505050565b60008060008342811015611c06576040805162461bcd60e51b8152602060048201526013602482015260008051602061341f833981519152604482015290519081900360640190fd5b611c348a7f00000000000000000000000000000000000000000000000000000000000000008b348c8c612dc2565b90945092506000611c867f00000000000000000000000000000000000000000000000000000000000000008c7f0000000000000000000000000000000000000000000000000000000000000000612675565b9050611c948b338388612735565b7f00000000000000000000000000000000000000000000000000000000000000006001600160a01b031663d0e30db0856040518263ffffffff1660e01b81526004016000604051808303818588803b158015611cef57600080fd5b505af1158015611d03573d6000803e3d6000fd5b50505050507f00000000000000000000000000000000000000000000000000000000000000006001600160a01b031663a9059cbb82866040518363ffffffff1660e01b815260040180836001600160a01b03166001600160a01b0316815260200182815260200192505050602060405180830381600087803b158015611d8857600080fd5b505af1158015611d9c573d6000803e3d6000fd5b505050506040513d6020811015611db257600080fd5b5051611dba57fe5b806001600160a01b0316636a627842886040518263ffffffff1660e01b815260040180826001600160a01b03166001600160a01b03168152602001915050602060405180830381600087803b158015611e1257600080fd5b505af1158015611e26573d6000803e3d6000fd5b505050506040513d6020811015611e3c57600080fd5b5051925034841015611e5457611e5433853403612345565b505096509650969350505050565b60608142811015611ea8576040805162461bcd60e51b8152602060048201526013602482015260008051602061341f833981519152604482015290519081900360640190fd5b7f00000000000000000000000000000000000000000000000000000000000000006001600160a01b031686866000818110611edf57fe5b905060200201356001600160a01b03166001600160a01b031614611f45576040805162461bcd60e51b8152602060048201526018602482015277084cae4c2a4deeae8cae47440929cac82989288bea082a8960431b604482015290519081900360640190fd5b611fa37f000000000000000000000000000000000000000000000000000000000000000088888880806020026020016040519081016040528093929190818152602001838360200280828437600092019190915250612ad892505050565b91503482600081518110611fb357fe5b60200260200101511115611ff85760405162461bcd60e51b815260040180806020018281038252602281526020018061348d6022913960400191505060405180910390fd5b7f00000000000000000000000000000000000000000000000000000000000000006001600160a01b031663d0e30db08360008151811061203457fe5b60200260200101516040518263ffffffff1660e01b81526004016000604051808303818588803b15801561206757600080fd5b505af115801561207b573d6000803e3d6000fd5b50505050507f00000000000000000000000000000000000000000000000000000000000000006001600160a01b031663a9059cbb6120e07f0000000000000000000000000000000000000000000000000000000000000000898960008181106114b257fe5b846000815181106120ed57fe5b60200260200101516040518363ffffffff1660e01b815260040180836001600160a01b03166001600160a01b0316815260200182815260200192505050602060405180830381600087803b15801561214457600080fd5b505af1158015612158573d6000803e3d6000fd5b505050506040513d602081101561216e57600080fd5b505161217657fe5b6121b582878780806020026020016040519081016040528093929190818152602001838360200280828437600092019190915250899250612892915050565b816000815181106121c257fe5b60200260200101513411156115a4576115a433836000815181106121e257fe5b60200260200101513403612345565b604080516001600160a01b038481166024830152604480830185905283518084039091018152606490920183526020820180516001600160e01b031663a9059cbb60e01b178152925182516000946060949389169392918291908083835b6020831061226e5780518252601f19909201916020918201910161224f565b6001836020036101000a0380198251168184511680821785525050505050509050019150506000604051808303816000865af19150503d80600081146122d0576040519150601f19603f3d011682016040523d82523d6000602084013e6122d5565b606091505b5091509150818015612303575080511580612303575080806020019051602081101561230057600080fd5b50515b61233e5760405162461bcd60e51b815260040180806020018281038252602d815260200180613460602d913960400191505060405180910390fd5b5050505050565b604080516000808252602082019092526001600160a01b0384169083906040518082805190602001908083835b602083106123915780518252601f199092019160209182019101612372565b6001836020036101000a03801982511681845116808217855250505050505090500191505060006040518083038185875af1925050503d80600081146123f3576040519150601f19603f3d011682016040523d82523d6000602084013e6123f8565b606091505b50509050806124385760405162461bcd60e51b81526004018080602001828103825260348152602001806133576034913960400191505060405180910390fd5b505050565b600080841161247d5760405162461bcd60e51b81526004018080602001828103825260268152602001806133d26026913960400191505060405180910390fd5b60008311801561248d5750600082115b6124c85760405162461bcd60e51b81526004018080602001828103825260238152602001806133036023913960400191505060405180910390fd5b60006124dc856126f763ffffffff61303616565b905060006124f0828563ffffffff61303616565b905060006125168361250a8861271063ffffffff61303616565b9063ffffffff61309916565b905080828161252157fe5b04979650505050505050565b6060600282511015612582576040805162461bcd60e51b8152602060048201526019602482015278084cae4c298d2c4e4c2e4f27440929cac82989288bea082a89603b1b604482015290519081900360640190fd5b815167ffffffffffffffff8111801561259a57600080fd5b506040519080825280602002602001820160405280156125c4578160200160208202803683370190505b50905082816000815181106125d557fe5b60200260200101818152505060005b600183510381101561266d576000806126278786858151811061260357fe5b602002602001015187866001018151811061261a57fe5b60200260200101516130e8565b9150915061264984848151811061263a57fe5b6020026020010151838361243d565b84846001018151811061265857fe5b602090810291909101015250506001016125e4565b509392505050565b60008060006126848585612cce565b604080516bffffffffffffffffffffffff19606094851b811660208084019190915293851b81166034830152825160288184030181526048830184528051908501206001600160f81b031960688401529a90941b9093166069840152607d8301989098527f0e4b3c3320d3ed33a564d800cd6a1544f83c4f5db687a43ebb878359aefdcb2d609d808401919091528851808403909101815260bd909201909752805196019590952095945050505050565b604080516001600160a01b0385811660248301528481166044830152606480830185905283518084039091018152608490920183526020820180516001600160e01b03166323b872dd60e01b17815292518251600094606094938a169392918291908083835b602083106127ba5780518252601f19909201916020918201910161279b565b6001836020036101000a0380198251168184511680821785525050505050509050019150506000604051808303816000865af19150503d806000811461281c576040519150601f19603f3d011682016040523d82523d6000602084013e612821565b606091505b509150915081801561284f57508051158061284f575080806020019051602081101561284c57600080fd5b50515b61288a5760405162461bcd60e51b81526004018080602001828103825260318152602001806133266031913960400191505060405180910390fd5b505050505050565b60005b6001835103811015612ad2576000808483815181106128b057fe5b60200260200101518584600101815181106128c757fe5b60200260200101519150915060006128df8383612cce565b50905060008785600101815181106128f357fe5b60200260200101519050600080836001600160a01b0316866001600160a01b03161461292157826000612925565b6000835b91509150600060028a5103881061293c578861297d565b61297d7f0000000000000000000000000000000000000000000000000000000000000000878c8b6002018151811061297057fe5b6020026020010151612675565b90506129aa7f00000000000000000000000000000000000000000000000000000000000000008888612675565b6001600160a01b031663022c0d9f84848460006040519080825280601f01601f1916602001820160405280156129e7576020820181803683370190505b506040518563ffffffff1660e01b815260040180858152602001848152602001836001600160a01b03166001600160a01b0316815260200180602001828103825283818151815260200191508051906020019080838360005b83811015612a58578181015183820152602001612a40565b50505050905090810190601f168015612a855780820380516001836020036101000a031916815260200191505b5095505050505050600060405180830381600087803b158015612aa757600080fd5b505af1158015612abb573d6000803e3d6000fd5b505060019099019850612895975050505050505050565b50505050565b6060600282511015612b2d576040805162461bcd60e51b8152602060048201526019602482015278084cae4c298d2c4e4c2e4f27440929cac82989288bea082a89603b1b604482015290519081900360640190fd5b815167ffffffffffffffff81118015612b4557600080fd5b50604051908082528060200260200182016040528015612b6f578160200160208202803683370190505b5090508281600183510381518110612b8357fe5b60209081029190910101528151600019015b801561266d57600080612bc587866001860381518110612bb157fe5b602002602001015187868151811061261a57fe5b91509150612be7848481518110612bd857fe5b602002602001015183836131c2565b846001850381518110612bf657fe5b6020908102919091010152505060001901612b95565b6000808411612c62576040805162461bcd60e51b815260206004820181905260248201527f426572614c6962726172793a20494e53554646494349454e545f414d4f554e54604482015290519081900360640190fd5b600083118015612c725750600082115b612cad5760405162461bcd60e51b81526004018080602001828103825260238152602001806133036023913960400191505060405180910390fd5b82612cbe858463ffffffff61303616565b81612cc557fe5b04949350505050565b600080826001600160a01b0316846001600160a01b03161415612d38576040805162461bcd60e51b815260206004820181905260248201527f426572614c6962726172793a204944454e544943414c5f414444524553534553604482015290519081900360640190fd5b826001600160a01b0316846001600160a01b031610612d58578284612d5b565b83835b90925090506001600160a01b038216612dbb576040805162461bcd60e51b815260206004820152601960248201527f426572614c6962726172793a205a45524f5f4144445245535300000000000000604482015290519081900360640190fd5b9250929050565b6040805163e6a4390560e01b81526001600160a01b03888116600483015287811660248301529151600092839283927f00000000000000000000000000000000000000000000000000000000000000009092169163e6a4390591604480820192602092909190829003018186803b158015612e3c57600080fd5b505afa158015612e50573d6000803e3d6000fd5b505050506040513d6020811015612e6657600080fd5b50516001600160a01b03161415612f1957604080516364e329cb60e11b81526001600160a01b038a81166004830152898116602483015291517f00000000000000000000000000000000000000000000000000000000000000009092169163c9c65396916044808201926020929091908290030181600087803b158015612eec57600080fd5b505af1158015612f00573d6000803e3d6000fd5b505050506040513d6020811015612f1657600080fd5b50505b600080612f477f00000000000000000000000000000000000000000000000000000000000000008b8b6130e8565b91509150816000148015612f59575080155b15612f6957879350869250613029565b6000612f76898484612c0c565b9050878111612fc95785811015612fbe5760405162461bcd60e51b815260040180806020018281038252602181526020018061343f6021913960400191505060405180910390fd5b889450925082613027565b6000612fd6898486612c0c565b905089811115612fe257fe5b878110156130215760405162461bcd60e51b81526004018080602001828103825260218152602001806133b16021913960400191505060405180910390fd5b94508793505b505b5050965096945050505050565b60008115806130515750508082028282828161304e57fe5b04145b610e4d576040805162461bcd60e51b815260206004820152601460248201527364732d6d6174682d6d756c2d6f766572666c6f7760601b604482015290519081900360640190fd5b80820182811015610e4d576040805162461bcd60e51b815260206004820152601460248201527364732d6d6174682d6164642d6f766572666c6f7760601b604482015290519081900360640190fd5b60008060006130f78585612cce565b509050613105868686612675565b50600080613114888888612675565b6001600160a01b0316630902f1ac6040518163ffffffff1660e01b815260040160606040518083038186803b15801561314c57600080fd5b505afa158015613160573d6000803e3d6000fd5b505050506040513d606081101561317657600080fd5b5080516020909101516dffffffffffffffffffffffffffff91821693501690506001600160a01b03878116908416146131b05780826131b3565b81815b90999098509650505050505050565b60008084116132025760405162461bcd60e51b81526004018080602001828103825260278152602001806133f86027913960400191505060405180910390fd5b6000831180156132125750600082115b61324d5760405162461bcd60e51b81526004018080602001828103825260238152602001806133036023913960400191505060405180910390fd5b6000613271612710613265868863ffffffff61303616565b9063ffffffff61303616565b9050600061328b6126f7613265868963ffffffff6132b216565b90506132a8600182848161329b57fe5b049063ffffffff61309916565b9695505050505050565b80820382811115610e4d576040805162461bcd60e51b815260206004820152601560248201527464732d6d6174682d7375622d756e646572666c6f7760581b604482015290519081900360640190fdfe426572614c6962726172793a20494e53554646494349454e545f4c49515549444954595472616e7366657248656c7065723a3a7472616e7366657246726f6d3a207472616e7366657246726f6d206661696c65645472616e7366657248656c7065723a3a736166655472616e736665724554483a20455448207472616e73666572206661696c656442657261526f757465723a20494e53554646494349454e545f4f55545055545f414d4f554e5442657261526f757465723a20494e53554646494349454e545f415f414d4f554e54426572614c6962726172793a20494e53554646494349454e545f494e5055545f414d4f554e54426572614c6962726172793a20494e53554646494349454e545f4f55545055545f414d4f554e5442657261526f757465723a20455850495245440000000000000000000000000042657261526f757465723a20494e53554646494349454e545f425f414d4f554e545472616e7366657248656c7065723a3a736166655472616e736665723a207472616e73666572206661696c656442657261526f757465723a204558434553534956455f494e5055545f414d4f554e54a2646970667358221220f0b986df7fef69a031493d948de633de6344b47c0fb5f802cbe03e84f27d7e8864736f6c63430006060033",
  "linkReferences": {},
  "deployedLinkReferences": {}
}